:020000040800F2
:1000000080060020C10100080F050008D704000881
:100010000D050008850300085D0E000800000000C3
:100020000000000000000000000000004D08000873
:10003000310400080000000001060008250900083E
:10004000DB010008DB010008DB010008DB01000820
:10005000DB010008DB010008DB010008DB01000810
:10006000DB010008DB010008DB010008DB01000800
:10007000DB010008DB010008DB010008DB010008F0
:10008000DB010008DB010008DB010008DB010008E0
:10009000DB010008DB010008DB010008DB010008D0
:1000A000DB010008DB010008DB010008DB010008C0
:1000B000DB010008DB010008DB010008DB010008B0
:1000C000DB010008DB010008DB010008DB010008A0
:1000D000DB010008DB010008DB0100083D0B000824
:1000E000DB010008DB010008DB010008DB01000880
:1000F000DB010008DB010008DB010008DB01000870
:10010000DB010008DB010008DB010008DB0100085F
:10011000D50A0008DB01000885090008DB0100089A
:10012000DB010008DB010008DB010008DB0100083F
:10013000DB010008DB010008DB010008DB0100082F
:10014000DB010008DB010008DB010008DB0100081F
:10015000DB010008DB010008DB010008050C0008DA
:10016000DB010008DB010008DB010008DB010008FF
:10017000DB010008DB010008DB010008DB010008EF
:10018000DB010008DB010008DB010008DB010008DF
:10019000DB010008DB010008DB010008DB010008CF
:1001A000DB010008DB010008DB010008DFF80CD0F0
:1001B00000F058F800480047410F00088006002072
:1001C0000648804706480047FEE7FEE7FEE7FEE7F1
:1001D000FEE7FEE7FEE7FEE7FEE7FEE72909000887
:1001E000AD01000840EA01039B0703D009E008C9FC
:1001F000121F08C0042AFAD203E011F8013B00F8EC
:10020000013B521EF9D27047D2B201E000F8012B37
:10021000491EFBD270470022F6E710B513460A4686
:1002200004461946FFF7F0FF204610BD421E12F8A3
:10023000013F002BFBD111F8013B02F8013B002BE1
:10024000F9D1704730B505460020034600E05B1C3D
:10025000934205D2EC5CC85C201A01D1002CF6D187
:1002600030BD0000064C074D06E0E06840F0010399
:1002700094E8070098471034AC42F6D3FFF79AFF92
:100280001C1200083C12000810B500F00DFCBDE87F
:10029000104000F001B800003EB50121102000F030
:1002A000BFF94CF6FA200190ADF80000094C694600
:1002B000204600F0BBFB0121204600F08FFB01220D
:1002C0001146204600F0A8FB0121204600F08CFBDF
:1002D0003EBD000000100040F0B5ADF5017D0446C4
:1002E0000D464FF40072244901A8FFF77BFF04F18B
:1002F0001307380A8DF809008DF80A701F494868FD
:10030000020C8DF80B20020A8DF80C208DF80D00E0
:1003100046208DF80E000868010C8DF80F10010AB8
:100320008DF810108DF81100601C41098DF8121025
:10033000C1008DF8131000218DF81410A4218DF840
:100340001510002301AE04E0F218E95C91745B1C07
:10035000DBB28342F8D304F11202002101A800F0BD
:10036000BBFD311988743A4601A9054800F083FDA8
:100370000DF5017DF0BD00001C1000081C000020E0
:1003800000140140FEE7000070B586B00121042092
:1003900000F038F90121C80400F042F900248DF87A
:1003A000164001208DF8170002258DF815508DF8A4
:1003B0001450800204901C4E04A9304600F039F815
:1003C0008DF81450A902049104A9304600F031F8C8
:1003D00008220B21304600F06AF808220A21304634
:1003E00000F065F84FF4E1300090ADF80440ADF84E
:1003F0000640ADF80840ADF80C400C20ADF80A00FE
:100400000A4C6946204600F0C3FC00F0A7F8012220
:1004100040F22551204600F0A0FC0121204600F0CA
:1004200069FC06B070BD000000080240004C0040AE
:1004300070472DE9F041002201274FF0030C07FA25
:1004400002F50B682B40AB422CD1066853000CFA26
:1004500003F4A64306600E79D0F800809E4046EA79
:10046000080606600E79012E01D0022E12D1866890
:10047000A64386604E79D0F808809E4046EA08067A
:1004800086604668AE43466045688E799640B6B24F
:1004900035434560C568A543C560CC799C40C368B9
:1004A0001C43C460521C102AC9D3BDE8F08110B5AA
:1004B0004B07DB0E9A40C90800EB8100016A0F244C
:1004C0009C40A1430162016A1143016210BD418356
:1004D000704701837047FEE71CB50121084600F014
:1004E00091F84FF40070009001218DF80410002065
:1004F0008DF806008DF807108DF805006946024852
:10050000FFF797FF1CBD000000000240FEE77047A8
:1005100008B54FF4A06000F069F827208DF80000BE
:1005200001208DF801008DF802008DF80300684667
:1005300000F028F808BD08B54FF4A06000F056F8A8
:1005400047208DF8000001208DF801008DF8020091
:100550008DF80300684600F015F808BD08B54FF4A3
:10056000A06000F043F834208DF8000001208DF8E1
:1005700001008DF802008DF80300684600F002F8D3
:1005800008BD000030B50F23C27801250178002A8C
:100590001FD0154A126802F4E062C2F5E062C2F3AD
:1005A0000722C2F10404D3404278A24084781C4060
:1005B0001443220101F1E02181F80024007800F0C9
:1005C0001F018D404009800000F1E020C0F800517B
:1005D00030BD01F01F0085404809800000F1E02097
:1005E000C0F8805130BD00000CED00E00249084326
:1005F00002490860704700000000FA050CED00E0B9
:1006000070470000054A002903D0116801431160BA
:100610007047116881431160704700003038024014
:10062000054A002903D01168014311607047116821
:10063000814311607047000040380240054A00299C
:1006400003D0116801431160704711688143116044
:10065000704700004438024070B5244B196801F01F
:100660000C01234C00291ED0224E04291DD008293C
:100670001DD00460196801F0F00109091E4A545C9C
:100680000168E14041601C6804F4E054A40A145D70
:1006900021FA04F484601B6803F460435B0BD25CB2
:1006A000D140C16070BD0460E4E70660E2E70F4A34
:1006B000121F1168C1F38055116801F03F0135B177
:1006C000B6FBF1F11468C4F38814614305E0B4FB90
:1006D000F1F11468C4F3881461431268C2F3014253
:1006E000521C5200B1FBF2F10160C3E7083802402E
:1006F0000024F40040787D010000002070B586B031
:1007000001210420FFF77EFF01212020FFF796FF43
:1007100000248DF8164001208DF8170002258DF871
:1007200015508DF81450402004901C4E04A93046FA
:10073000FFF77FFE8DF814508021049104A9304604
:10074000FFF777FE082207213046FFF7B0FE0822A8
:1007500006213046FFF7ABFE4FF4E1300090ADF8D4
:100760000440ADF80640ADF80840ADF80C400C2050
:10077000ADF80A000A4C6946204600F009FBFFF775
:10078000DAFE012240F22551204600F0E6FA01216E
:10079000204600F0AFFA06B070BD0000000802402D
:1007A0000014014070B586B001210220FFF72AFF36
:1007B00001218804FFF734FF00248DF81640012042
:1007C0008DF8170002258DF815508DF81450800211
:1007D00004901C4E04A93046FFF72BFE8DF81450F0
:1007E000A902049104A93046FFF723FE07220B213A
:1007F0003046FFF75CFE07220A213046FFF757FE1E
:100800004FF416500090ADF80440ADF80640ADF836
:100810000840ADF80C400C20ADF80A000A4C6946BF
:10082000204600F0B5FAFFF773FE012240F2255191
:10083000204600F092FA0121204600F05BFA06B053
:1008400070BD0000000402400048004070470000F6
:100850001CB50021019100912E4A106840F48030AF
:1008600010604FF4A043106800F40030009001982D
:10087000401C0190009810B901989842F3D110687B
:10088000800302D50120009000E00091009801282B
:100890003FD120484030016841F0805101601E493D
:1008A000086840F4404008601A4808300368036054
:1008B000036843F400430360036843F4A0530360F8
:1008C000041F164B2360136843F080731360136892
:1008D0009B01FCD50A6842F480320A604A68D20360
:1008E000FCD50A6842F400320A604A689203FCD5DB
:1008F0000B4A40F205711160016821F003010160AB
:10090000016841F0020101600168C1F3810102291F
:10091000FAD11CBD0038024000700040195A40074F
:10092000003C02407047000010B51248016841F4D5
:10093000700101601048016841F0010101600E4A38
:1009400000210832116002680C4B1A400260031D3E
:100950000B4A1A60026822F48022026006480C30BA
:100960000160FFF775FF03494FF0006080390860B0
:1009700010BD000088ED00E000380240FFFFF6FEE9
:100980001030002470B50024114D0121284600F0DC
:1009900037F800281BD00F480179491CC9B20171F2
:1009A00002290ED1002181700171284600F01CF847
:1009B000094E2421304600F052FA641CE4B2032CA4
:1009C000F7D32846BDE87040012100F00AB870BD99
:1009D0000010004010000020004C0040C94301827C
:1009E0007047C94301827047002904D0018841F053
:1009F000010101807047018821F0010101807047E9
:100A000002460020138A0B4092890A40002B02D034
:100A1000002A00D001207047002A03D082890A43AF
:100A20008281704782898A438281704730B502880B
:100A3000164C174DA0420DD0A8420BD0B0F1804FFC
:100A400008D0144B984205D0134B984202D0134B58
:100A5000984203D122F070034A881A43104B9842FF
:100A600006D0104B984203D022F440730A891A43EF
:100A700002804A68C2620A880285A04201D0A84268
:100A800001D1897A01860121818230BD00000140B7
:100A9000000401400004004000080040000C004039
:100AA000001000400014004008B54FF4E060FFF76C
:100AB0009DFD36208DF8000000208DF801000320F8
:100AC0008DF8020001208DF803006846FFF75AFDFB
:100AD00008BD00002DE9F041154F3888800624D567
:100AE000381D0088C1B2134C0025134EEC2901D1EA
:100AF0002170F5702078EC2817D1F378581CC2B219
:100B0000F270E154EB2910D101210A4800F004FAF7
:100B1000012808D1A078DD2805D1B570F278054903
:100B2000384600F0A8F92570F570BDE8F0810000A6
:100B3000004C0040B401002010000020F0B5BBB014
:100B4000C42102A8FFF767FB274800680190274FE0
:100B500040F22551384600F0E0F818B1384600F070
:100B600075F9C4B2224D242C00D12C702878214E66
:100B7000242803D130782C54401C30700A2C30D1FA
:100B8000287824282DD106221BA11948FFF75AFBEB
:100B900028BB95F82F00312821D1122133AA5318F0
:100BA000685C03F8120C491CC9B22E29F7D31C2229
:100BB00033A9134800F05FF933A901A8FFF736FB0A
:100BC0002022012101A800F087F98DF8240001A955
:100BD0002120FFF781FB0021384600F08BF8002030
:100BE00030703BB0F0BD0000181000080048004015
:100BF000240000201000002024474E4747410000F9
:100C0000004C00402DE9F0413148008880065CD559
:100C10002F48001D0088C0B22E4D242800D1287016
:100C200029782D4E242912D171786854062904D1CF
:100C3000A8796A7900EB0220F080112905D1687C3F
:100C40002A7C00EB0220C0083081491C7170287892
:100C500024283AD17278F088824236D100211D488A
:100C600000F045F960B305221CA11A48FFF7EAFA23
:100C70001C4F58B9A87A000608D47278154938462E
:100C800000F0F9F801211848FFF7AEFE052217A180
:100C90001048FFF7D7FA98B9EC21384600F0DFF892
:100CA000002406E02819817C384600F0D8F8641C3E
:100CB000E4B230898442F5D3EB21384600F0CFF816
:100CC000002028707070F0803081BDE8F081000055
:100CD00000140140EC0000201000002024464B5876
:100CE00058000000004C00400010004024545858A8
:100CF00058000000002904D0818941F4005181810D
:100D00007047818921F4005181817047024600209B
:100D100012880A4200D00120704770B5002440F6C6
:100D20006A12C1F3421301F01F05012606FA05F20B
:100D3000012B0CD0022B0DD0838A1340090A8E4060
:100D4000008830400BB100B10124204670BD83897A
:100D50001340F3E7038A1340F0E710B540F66A1337
:100D6000C1F3421301F01F040121A140012B07D060
:100D7000022B07D014303AB102680A43026010BD5A
:100D80000C30F8E71030F6E702688A43026010BDC5
:100D90007FB504460D46208A20F44051E888084378
:100DA0002082A08941F20C618843A9882A891143D5
:100DB0006A8902431143A181A08A20F44071A88965
:100DC0000843A0826846FFF747FC1E48844202D0D1
:100DD0001D48844201D1039800E00298A1890904CA
:100DE00008D500EBC00101EB001029684900B0FBF9
:100DF000F1F007E000EBC00101EB00102968890069
:100E0000B0FBF1F06422B0FBF2F109010B096FF0C5
:100E100018056B4300EB8300A3891D044FF03203D8
:100E200007D503EBC000B0FBF2F000F00700084369
:100E300006E003EB0010B0FBF2F000F00F000843F7
:100E400020817FBD00100140001401408088C0F364
:100E500008007047C1F3080181807047FEE710B5B4
:100E600004462046FFF7F6FF80212046FFF74EFF9D
:100E70000028F9D010BD2DE9F04107460D46164671
:100E800000243846295DFFF7EAFF641CB442F8D31A
:100E9000BDE8F08170B506460D4600243046295D58
:100EA000FFF7DDFF641C285D0028F7D140213046A4
:100EB000FFF72CFF0028F9D070BD02E008C8121F10
:100EC00008C1002AFAD170477047002001E001C133
:100ED000121F002AFBD1704710B50346002003E023
:100EE0005C5C6040491CC9B29142F9D310BD70B539
:100EF00000240023551E04E0CE18865D74405B1C60
:100F0000DBB2AB42F8DB104410F8010CA04201D177
:100F1000012070BD002070BD30B50023941E03E099
:100F2000455C6B40491CC9B2A142F9DB104410F882
:100F3000020C984201D1012030BD002030BD0000DC
:100F4000FFF730FCFFF7DAFBFFF71EFAFFF79CF91B
:100F5000FFF7C2FA00212448FFF746FD234E002187
:100F60003046FFF7C7FE0024DFF88480214DDFF80C
:100F70008890DFF888A07715287888B90121504635
:100F8000FFF7B8FE01213046FFF7B4FE24B91CA1DB
:100F90004846FFF77FFF012439464046FFF799FA9C
:100FA000287801280DD139464046FFF790FA0024F1
:100FB00000213046FFF79EFE00215046FFF79AFEC3
:100FC00030BF28780228D7D1012C04D10EA1484681
:100FD000FFF760FF002400213046FFF78BFE012160
:100FE0005046FFF787FEC7E700100040004800406A
:100FF0000000024012000020004C0040001401409C
:10100000BBBDD0D10D0A0000BDF8C8EBB4FDBBFAE2
:10101000C4A3CABD0D0A00001C0101012454585389
:10102000510000000000000000000000000000006F
:1010300000000000000000000000000000000000B0
:1010400000000000000000000000000000000000A0
:101050000000000000000000000000000000000090
:101060000000000000000000000000000000000080
:101070000000000000000000000000000000000070
:101080000000000000000000000000000000000060
:101090000000000000000000000000000000000050
:1010A0000000000000000000000000000000000040
:1010B0000000000000000000000000000000000030
:1010C0000000000000000000000000000000000020
:1010D0000000000000000000000000000000000010
:1010E0000000000000000000000000000000000000
:1010F00000000000000000000000000000000000F0
:1011000000000000000000000000000000000000DF
:1011100000000000000000000000000000000000CF
:1011200000000000000000000000000000000000BF
:1011300000000000000000000000000000000000AF
:10114000000000000000000000000000000000009F
:10115000000000000000000000000000000000008F
:10116000000000000000000000000000000000007F
:10117000000000000000000000000000000000006F
:10118000000000000000000000000000000000005F
:10119000000000000000000000000000000000004F
:1011A000000000000000000000000000000000003F
:1011B000000000000000000000000000000000002F
:1011C000000000000000000000000000000000001F
:1011D000000000000000000000000000000000000F
:1011E00000000000000000000000000000000000FF
:1011F00000000000000000000000000000000000EF
:1012000000000000000000000000000000000000DE
:101210000000000000000000000000003C12000878
:101220000000002024000000BA0E00086012000830
:10123000240000205C060000CA0E00080000000028
:10124000010203040102030406070809000001006B
:10125000000000000000000023CB040050CB04007D
:04000005080001AD41
:00000001FF
